:100000000C942A000C943F000C943F000C943F0089
:100010000C943F000C943F000C943F000C943F0064
:100020000C943F000C943F000C943F000C943F0054
:100030000C943F000C943F000C943F000C943F0044
:100040000C943F000C943F000C943F000C943F0034
:100050000C943F0011241FBECFE5D8E0DEBFCDBF1A
:1000600010E0A0E6B0E0ECEEF5E002C005900D92E5
:10007000A43DB107D9F70E9461020C94F4020C94DC
:10008000000090BD89B9599A88E18AB986E880BD97
:100090005F9B08958CB1FCCF5D9BFECF8CB908951A
:1000A000CF93DF93EC018991811103C0DF91CF9150
:1000B00008950E944C00F7CF8BB1807808955F9B24
:1000C000FECF8CB108958FEF8ABB1BBA81B3806BD2
:1000D00081BBBB9A87B3836087BBC19A81EA8FBD1E
:1000E00089E08EBD1BBC1ABC19BC18BC89E683BF55
:1000F0001CBE85BD13BC0895813031F4D89AD998BF
:1001000070E07BBD6ABD0895823019F4D898D99A01
:10011000F7CF8BB38C7F8BBBF3CF813031F4DA9A7E
:10012000DB9870E079BD68BD0895823019F4DA98E3
:10013000DB9AF7CF8BB3837F8BBBF3CF813021F476
:10014000DC9ADD986CBF0895823019F4DC98DD9A52
:10015000F9CF8BB38F7C8BBBF5CF813021F4DE9A46
:10016000DF9863BD0895823019F4DE98DF9AF9CFE5
:100170008BB38F738BBBF5CFCF93DF93C82FD62F65
:100180000E947C006D2F8C2FDF91CF910C948D00FD
:10019000CF93DF93C82FD62F0E949E006D2F8C2FF8
:1001A000DF91CF910C94AD0068EC81E00E94BC001F
:1001B00068EC81E00C94C80068EC82E00E94BC000E
:1001C00068EC82E00C94C80068EC82E00E94BC00FD
:1001D00068EC81E00C94C80068EC81E00E94BC00EF
:1001E00068EC82E00C94C80060E080E00E94BC00F3
:1001F00060E080E00C94C800882311F0C09A089554
:10020000C098089583E294EF0197F1F700C00000D1
:100210005F9B08950E945F00FBCFCF93DF93D82FA1
:10022000C92F0E94EF0160E080E00E944C0280E64E
:1002300090E00E94540260E081E00E944C028D2F09
:100240009C2FDF91CF910C9454021F93CF93DF9397
:10025000CDB7DEB729970FB6F894DEBF0FBECDBF7E
:10026000182F4AE0BE016F5F7F4F90E00E94BF02EF
:100270000E94EF0160E080E00E944C0284E690E082
:100280000E94540260E081E00E944C02CE0101967F
:100290000E94540280EE810F8F3570F480E28E83CD
:1002A00087E28F8318871986CE0106960E94540232
:1002B00082E790E00E94540284E790E00E945000A0
:1002C000CE0101960E9450008BEA90E00E945000FF
:1002D00029960FB6F894DEBF0FBECDBFDF91CF9148
:1002E0001F91089580E197E206B607FE02C081E003
:1002F00008950197C9F780E0089584B38C7F84BB8B
:1003000085B3836085BB83E08A95F1F70000A09AEE
:1003100089E0A89893E09A95F1F70000A89A93E0F5
:100320009A95F1F700008150A1F711B88AE080B9E1
:1003300084E086BF0895CF93C82F84EA86BF0E94C9
:100340007201882351F0C3B984E886BF0E9472010C
:10035000982F81E0911101C080E0CF91089583B979
:1003600084E886BF0C94720184E986BF83E08A9595
:10037000F1F700000895CF9320E1829FC00111247E
:10038000C82FC860662311F0C82FC9608EE40E9490
:100390009B01882399F08C2F0E94AF0100C08C2F05
:1003A00084600E94AF0100C08C2F0E94AF0180E1E9
:1003B0008A95F1F700C0CF910C94B401CF910895C4
:1003C000CF93DF93C82FD62F82958F700E94BB01E9
:1003D0006D2F8C2F8F70DF91CF910C94BB0160E05B
:1003E00081E00E94E00181EE94E00197F1F700C006
:1003F000000008950E947D0183E294EF0197F1F7D8
:1004000000C000008EE40E949B01882329F080E058
:100410000E94AF010E94B40183EC99E00197F1F7CB
:1004200000C0000060E083E00E94BB0183EC99E023
:100430000197F1F700C0000060E083E00E94BB017B
:1004400083EF91E00197F1F700C0000060E083E0E6
:100450000E94BB0183EF91E00197F1F700C000001B
:1004600060E082E00E94BB0181EE94E00197F1F729
:1004700000C0000060E088E20E94E00160E088E0E7
:100480000E94E0010E94EF0160E086E00E94E0012E
:1004900060E08CE00C94E001962F8111905C60E0AC
:1004A000892F80680C94E001CF93DF93EC01899150
:1004B000811103C0DF91CF91089561E00E94E001B6
:1004C000F6CF8CE090E00E9441000E94FA010E9469
:1004D000630080E00E94FC0060E080E00E944C022B
:1004E00086E990E00E9454028FE990E00E9450005B
:1004F000C0E011E05F9BFECF0E945F00823531F1CA
:100500004CF4863491F08C34E1F08234A9F00E94EE
:100510002501F0CF8835F9F0893571F18335B9F7C8
:100520000E94F4008AEC90E004C00E94D4008EEA9D
:1005300090E00E940D01DECF0E94DC0086EB90E08F
:10054000F8CF0E94E4008FEB90E0F3CF0E94EC0024
:1005500084EC90E0EECFDC2FD1278D2F0E94FC00A1
:100560008EE890E0C11102C087E890E00E940D0182
:100570000E940201CD2FBECF8FEC90E0DACFBB27D7
:100580004A3031F4992322F4BDE2909581959F4F32
:100590000C94CB02BB27FB015527AA27880F991F74
:1005A000AA1FA41710F0A41B83955051B9F7A05DA2
:1005B000AA3308F0A95DA193009779F7B111B1931F
:1005C0001192CB010C94E402DC01FC01672F7191C4
:1005D0007723E1F7329704C07C916D937083629129
:0C05E000AE17BF07C8F30895F894FFCFD2
:1005EC0042543A00556E6B6E6F776E20636F646584
:1005FC003A002700556E6B6E6F776E2062797465CA
:10060C0020636F64653D004C4544204F4E004C45C3
:10061C0044204F4646004254205265616479005391
:10062C00797374656D2052656164790D0A00466FAB
:10063C007277617264004261636B77617264004C23
:10064C006566740052696768740053746F70004873
:04065C006F726E004B
:00000001FF
