:100000000C942A000C9434000C9434000C943400AA
:100010000C9434000C9434000C9434000C94340090
:100020000C9434000C9434000C9434000C94340080
:100030000C9434000C9434000C9434000C94340070
:100040000C9434000C9434000C9434000C94340060
:100050000C94340011241FBECFE5D8E0DEBFCDBF25
:100060000E9490000C94CE000C940000CF93C62FF9
:10007000880F0E947000882341F0C111C8E08C2FC6
:100080000E948400CF910C948900CF91089580E163
:1000900097E206B607FE02C081E008950197C9F70E
:1000A00080E0089584B38C7F84BB85B3836085BB77
:1000B00083E08A95F1F70000A09A89E0A89893E080
:1000C0009A95F1F70000A89A93E09A95F1F700004D
:1000D0008150A1F711B882E080B984E086BF08950D
:1000E000CF93C82F84EA86BF0E944700882351F02F
:1000F000C3B984E886BF0E944700982F81E0911120
:1001000001C080E0CF91089583B984E886BF0C9444
:10011000470084E986BF83E08A95F1F700000895DF
:100120000E9452008EE40E9470008823B9F00E9461
:10013000890061E087E20E9436008BE792E901972F
:10014000F1F700C0000060E087E20E9436008BE714
:1001500092E90197F1F700C00000E4CF8EE70E941A
:1001600070008823F9F20E94890061E08FE30E9409
:1001700036009FEB24ED81E0915020408040E1F774
:1001800000C0000060E08FE30E9436009FEB24ED8A
:1001900081E0915020408040E1F7DDCFF894FFCF1F
:00000001FF
