:100000000C942A000C9434000C9434000C943400AA
:100010000C9434000C9434000C9434000C94340090
:100020000C9434000C9434000C9434000C94340080
:100030000C9434000C9434000C9434000C94340070
:100040000C9434000C9434000C9434000C94340060
:100050000C94340011241FBECFE5D8E0DEBFCDBF25
:100060000E9425010C9456010C940000CF9320E1CE
:10007000829FC0011124C82FC860662311F0C82FC9
:10008000C9608EE40E940501882399F08C2F0E949C
:10009000190100C08C2F84600E94190100C08C2FB0
:1000A0000E94190180E18A95F1F700C0CF910C946C
:1000B0001E01CF910895CF93DF93C82FD62F82953D
:1000C0008F700E9436006D2F8C2F8F70DF91CF9133
:1000D0000C94360060E081E00E945B0081EE94E0C9
:1000E0000197F1F700C0000008950E94E70083E245
:1000F00094EF0197F1F700C000008EE40E94050123
:10010000882329F080E00E9419010E941E0183ECDF
:1001100099E00197F1F700C0000060E083E00E94E1
:10012000360083EC99E00197F1F700C0000060E031
:1001300083E00E94360083EF91E00197F1F700C061
:10014000000060E083E00E94360083EF91E00197B9
:10015000F1F700C0000060E082E00E94360081EE0E
:1001600094E00197F1F700C0000060E088E20E948F
:100170005B0060E088E00E945B000E946A0060E033
:1001800086E00E945B0060E08CE00C945B00962FA0
:100190008111905C60E0892F80680C945B00CF93A4
:1001A000DF93EC018991811103C0DF91CF91089514
:1001B00061E00E945B00F6CF80E197E206B607FEA1
:1001C00002C081E008950197C9F780E0089584B3E3
:1001D0008C7F84BB85B3836085BB83E08A95F1F710
:1001E0000000A09A89E0A89893E09A95F1F70000A2
:1001F000A89A93E09A95F1F700008150A1F711B801
:1002000082E080B984E086BF0895CF93C82F84EA46
:1002100086BF0E94DC00882351F0C3B984E886BF02
:100220000E94DC00982F81E0911101C080E0CF9105
:10023000089583B984E886BF0C94DC0084E986BF06
:1002400083E08A95F1F70000089500D0CDB7DEB7BE
:1002500087B3887F87BB88B3876088BB0E9475009F
:100260008FEFB09B1DC0B19B1DC0B29B1DC010E0A5
:10027000811771F00E946A0060E080E00E94C70070
:1002800080E3810F89831A82CE0101960E94CF00FC
:1002900083ED90E30197F1F700C00000812FE1CFDB
:1002A00011E0E6CF12E0E4CF13E0E2CFF894FFCF05
:00000001FF
