:100000000C942A000C943F000C943F000C943F0089
:100010000C943F000C943F000C943F000C943F0064
:100020000C943F000C943F000C943F000C943F0054
:100030000C943F000C943F000C943F000C943F0044
:100040000C943F000C943F000C943F000C943F0034
:100050000C943F0011241FBECFE5D8E0DEBFCDBF1A
:1000600010E0A0E6B0E0E4E3FAE002C005900D92F3
:10007000AC37B107D9F70E948D010C9418050C9488
:10008000000080E197E206B607FE02C081E0089515
:100090000197C9F780E0089584B38C7F84BB85B352
:1000A000836085BB8DE08A95F1F70000A09A89E016
:1000B000A8989DE09A95F1F70000A89A9DE09A957E
:1000C000F1F700008150A1F711B88AE080B984E00F
:1000D00086BF0895CF93C82F84EA86BF0E9441004F
:1000E000882351F0C3B984E886BF0E944100982F4D
:1000F00081E0911101C080E0CF91089583B984E837
:1001000086BF0C94410084E986BF8DE08A95F1F7A3
:1001100000000895CF9320E1829FC0011124C82FD1
:10012000C860662311F0C82FC9608EE40E946A007F
:100130008823C9F08C2F0E947E0082E08A95F1F717
:1001400000C08C2F84600E947E0022E02A95F1F787
:1001500000C08C2F0E947E0082E48A95F1F700C0D7
:10016000CF910C948300CF910895CF93DF93C82F44
:10017000D62F82958F700E948A006D2F8C2F8F70E2
:10018000DF91CF910C948A0060E081E00E94B5007D
:1001900087E893E10197F1F700C000000895962FDA
:1001A0008111905C60E0892F80680C94B500CF933A
:1001B0000E944C00C5E08EE40E946A00882309F486
:1001C0004AC080E00E947E000E9483008FE493EC8E
:1001D0000197F1F700C0000060E083E00E948A0010
:1001E0008FE097E20197F1F700C0000060E083E044
:1001F0000E948A008FEC97E00197F1F700C00000A1
:1002000060E083E00E948A008FEC97E00197F1F7AD
:1002100000C0000060E082E00E948A0087E893E16D
:100220000197F1F700C0000060E088E20E94B5008D
:1002300060E088E00E94B5000E94C40060E086E0B3
:100240000E94B50060E08CE00E94B50060E080E0B4
:10025000CF910C94CF0087E893E10197F1F700C0AC
:100260000000C15009F0A7CFB1CFCF93DF93EC01CD
:100270008991811103C0DF91CF91089561E00E94BF
:10028000B500F6CF80E487B985E886B9089597B1BF
:10029000907E8770982B97B9369A3699FECF84B1A5
:1002A00095B108951F93CF93DF9300D000D000D075
:1002B000CDB7DEB7182F6E831D8219821A821B827A
:1002C0001C824D815E81451315C0242F30E050E023
:1002D00040E069817A818B819C810E941102C90171
:1002E00026960FB6F894DEBF0FBECDBFDF91CF913B
:1002F0001F910895812F0E94470129813A814B81E6
:100300005C81280F391F411D511D29833A834B837E
:100310005C833D813F5F3D83D4CFCDB7DEB765972A
:100320000FB6F894DEBF0FBECDBF0E94D7000E946B
:10033000420144244A9483E0582E612C712C90E6AB
:10034000A92E90E0B92E28EE822E23E0922E3DE6D3
:10035000C32E30E0D32E60E280E00E945201182FBD
:10036000092F282F392FA8E8B3E10E9433026A8BA6
:100370007B8B8C8B9D8BA30192010E9411027901D2
:100380000F931F93BF92AF9281E090E08C0F9D1F5F
:100390009F938F930E94420260E080E00E94CF0012
:1003A000CE0101960E943501C701B4010E94FD01F2
:1003B0009F938F937F936F93DF92CF9281E090E032
:1003C0008C0F9D1F9F938F930E94420260E081E0FB
:1003D0000E94CF00CE0101960E9435019FEF20E7D9
:1003E00082E0915020408040E1F700C000000FB64D
:1003F000F894DEBF0FBECDBFAECFAA1BBB1B51E131
:1004000007C0AA1FBB1FA617B70710F0A61BB70B84
:10041000881F991F5A95A9F780959095BC01CD0129
:100420000895A1E21A2EAA1BBB1BFD010DC0AA1F35
:10043000BB1FEE1FFF1FA217B307E407F50720F04D
:10044000A21BB30BE40BF50B661F771F881F991FC8
:100450001A9469F760957095809590959B01AC0111
:10046000BD01CF010895A29FB001B39FC001A39F1A
:10047000700D811D1124911DB29F700D811D1124DD
:10048000911D0895AEE0B0E0E8E4F2E00C94EF04D2
:100490000D891E8986E08C831A8309838FEF9FE77D
:1004A0009E838D83AE01475E5F4F6F89788DCE014D
:1004B00001960E9465022F813885020F131FF801F3
:1004C00010822E96E4E00C940B05AFE0B0E0EBE672
:1004D000F2E00C94E1047C013B018A01DC011796F7
:1004E0001C921E92169713968C9181FFC3C19AE0BD
:1004F000292EFE0131964F01D70113969C91F301ED
:1005000093FD859193FF81913F01882309F448C1B0
:10051000853239F493FD859193FF81913F018532B6
:1005200029F4B70190E00E945304E6CFB12C412C8E
:10053000512CBFE1B51538F08B3209F188F48032C7
:1005400001F1833221F157FC3AC020ED280F2A3007
:1005500040F556FE1FC0B29C200D1124B22E06C0DD
:100560008D3291F0803379F7689450F8F30193FD60
:10057000859193FF81913F018111DBCF20C0689469
:1005800051F8689452F8F2CF689453F8EFCF68941A
:1005900054F8ECCF429C200D1124422E689455F85B
:1005A000E5CF8E3229F456FCFBC0689456F8DECFB6
:1005B0008C3619F4689457F8D9CF8836B9F2982F49
:1005C0009F7D95549330C0F08336A1F18337C1F1FC
:1005D000833509F05BC0D801CD90DD908D016B2D86
:1005E00070E056FC02C06FEF7FEFC6010E943D0431
:1005F0005C01689457F80AC00C5F1F4FEFE3E98372
:10060000AA24A394B12C6401E89457F853FC04C0C5
:100610004A141B0409F018F5342CA114B10431F567
:10062000332009F469CFB70180E290E00E945304BF
:100630003A94F6CFD8018C9189830E5F1F4FE0CF9B
:10064000F801C190D1908F016B2D70E056FC02C073
:100650006FEF7FEFC6010E9448045C01D5CFB70160
:1006600080E290E00E9453044A94D2CFF60157FCF6
:10067000859157FE81916F01B70190E00E9453046C
:1006800031103A94B1E0AB1AB108C7CF843619F0F3
:10069000893609F074C0F80157FE6AC06191719102
:1006A000819191918F01E52DEF76DE2E97FF09C0A4
:1006B00090958095709561957F4F8F4F9F4F68946F
:1006C000D7F82AE030E0A4010E948304C82EC8189D
:1006D000AC2C5D2CD6FE0CC0E89450F8CB1440F442
:1006E000D4FE05C0D2FC03C05D2D5E7E552EAB2C22
:1006F00054FE98C0FE01EC0DF11D8081803309F09D
:100700008AC0652D697E562E752D7870372E53FC64
:1007100098C050FE92C0BC2CA41418F44C0CB42CFD
:10072000BA1854FE94C0B70180E390E00E945304CD
:1007300052FE09C088E790E051FE02C088E590E0D3
:10074000B7010E945304CB1408F48DC0CA94D12C75
:100750008FEFC81AD80AC80CD91CD6018E916D012A
:10076000B70190E00E9453048C149D04B1F758CF58
:1007700061917191072E000C880B990B93CFD52CAA
:10078000E894D4F82AE030E0853739F1F52DF97F87
:10079000DF2E8037A9F058F48835A9F08F36D9F0CC
:1007A000F701868197812F96E2E10C94FD0488374A
:1007B000B9F7D4FE02C06894D2F820E130E00DC051
:1007C0006894D4F8F6CF54FE03C02F2F2660D22EA3
:1007D00020E132E002C028E030E0F801D7FE15C089
:1007E00041915191619171914C875D876E877F87AF
:1007F0008F01A4016C857D858E859F850E94830471
:10080000C82EC818E894D7F863CF81919191AC01B4
:1008100070E060E0E9CF52FC02C0A39475CFA394CE
:10082000A39472CF852D867809F46ECFF6CFB701E9
:1008300080E290E00E945304A394A414C0F3312CEE
:1008400070CF342C3A18A41408F46BCFF8CF852D50
:10085000867809F478CF8BE251FE80E257FC8DE276
:10086000B70190E06ECFB70180E390E00E9453049F
:10087000BA9469CF8FEF9FEF96CFFC01059061503E
:1008800070400110D8F7809590958E0F9F1F0895A6
:10089000FC016150704001900110D8F7809590954F
:1008A0008E0F9F1F08950F931F93CF93DF93182FE1
:1008B000092FEB018B8181FD09C01FEF0FEF812F05
:1008C000902FDF91CF911F910F91089582FF14C057
:1008D0002E813F818C819D81281739073CF4E88166
:1008E000F981CF0101969983888310838E819F813E
:1008F00001969F838E83E3CFE885F985812F099543
:10090000892BA1F3DACFFA01AA27283051F120313F
:1009100081F1E8946F936E7F6E5F7F4F8F4F9F4F93
:10092000AF4FB1E03ED0B4E03CD0670F781F891FD5
:100930009A1FA11D680F791F8A1F911DA11D6A0FA3
:10094000711D811D911DA11D20D009F468943F9156
:100950002AE0269F11243019305D3193DEF6CF0155
:100960000895462F4770405D4193B3E00FD0C9F71B
:10097000F6CF462F4F70405D4A3318F0495D31FD88
:100980004052419302D0A9F7EACFB4E0A6959795DB
:10099000879577956795BA95C9F7009761057105B1
:1009A00008959B01AC010A2E0694579547953795FB
:1009B0002795BA95C9F7620F731F841F951FA01D55
:1009C00008952F923F924F925F926F927F928F92F3
:1009D0009F92AF92BF92CF92DF92EF92FF920F93CE
:1009E0001F93CF93DF93CDB7DEB7CA1BDB0B0FB6D8
:1009F000F894DEBF0FBECDBF09942A883988488895
:100A00005F846E847D848C849B84AA84B984C8842A
:100A1000DF80EE80FD800C811B81AA81B981CE0F21
:100A2000D11D0FB6F894DEBF0FBECDBFED01089506
:040A3000F894FFCF68
:100A34005261773A20253475202020200025752E18
:0C0A4400253033752056202020200000B3
:00000001FF
