:100000000C942A000C943F000C943F000C943F0089
:100010000C943F000C943F000C943F000C943F0064
:100020000C943F000C943F000C943F000C943F0054
:100030000C943F000C943F000C943F000C943F0044
:100040000C943F000C943F000C943F000C943F0034
:100050000C943F0011241FBECFE5D8E0DEBFCDBF1A
:1000600010E0A0E6B0E0E4EAF4E002C005900D92F2
:10007000A03DB107D9F70E94C8010C9450020C941E
:10008000000090BD89B9599A88E18AB986E880BD97
:100090005F9B08958CB1FCCF5D9BFECF8CB908951A
:1000A000CF93DF93EC018991811103C0DF91CF9150
:1000B00008950E944C00F7CF8BB1807808955F9B24
:1000C000FECF8CB10895882311F0C09A0895C0988E
:1000D000089583E294EF0197F1F700C000005F9B61
:1000E00008950E945F00FBCFCF93DF93D82FC92FD5
:1000F0000E94560160E080E00E94B30180E690E03B
:100100000E94BB0160E081E00E94B3018D2F9C2F13
:10011000DF91CF910C94BB011F93CF93DF93CDB7A9
:10012000DEB729970FB6F894DEBF0FBECDBF182FEC
:100130004AE0BE016F5F7F4F90E00E941B020E9469
:10014000560160E080E00E94B30188E690E00E94E2
:10015000BB0160E081E00E94B301CE0101960E94E4
:10016000BB0180EE810F8F3570F480E28E8387E2D1
:100170008F8318871986CE0106960E94BB0186E7F9
:1001800090E00E94BB0188E790E00E945000CE0101
:1001900001960E9450008FEA90E00E94500029963C
:1001A0000FB6F894DEBF0FBECDBFDF91CF911F9188
:1001B000089580E197E206B607FE02C081E0089547
:1001C0000197C9F780E0089584B38C7F84BB85B321
:1001D000836085BB83E08A95F1F70000A09A89E0EF
:1001E000A89893E09A95F1F70000A89A93E09A9561
:1001F000F1F700008150A1F711B88AE080B984E0DE
:1002000086BF0895CF93C82F84EA86BF0E94D90085
:10021000882351F0C3B984E886BF0E94D900982F83
:1002200081E0911101C080E0CF91089583B984E805
:1002300086BF0C94D90084E986BF83E08A95F1F7E4
:1002400000000895CF9320E1829FC0011124C82FA0
:10025000C860662311F0C82FC9608EE40E940201B5
:10026000882399F08C2F0E94160100C08C2F846087
:100270000E94160100C08C2F0E94160180E18A9511
:10028000F1F700C0CF910C941B01CF910895CF934B
:10029000DF93C82FD62F82958F700E9422016D2F79
:1002A0008C2F8F70DF91CF910C94220160E081E060
:1002B0000E94470181EE94E00197F1F700C0000031
:1002C00008950E94E40083E294EF0197F1F700C0E3
:1002D00000008EE40E940201882329F080E00E9441
:1002E00016010E941B0183EC99E00197F1F700C011
:1002F000000060E083E00E94220183EC99E0019716
:10030000F1F700C0000060E083E00E94220183EF6B
:1003100091E00197F1F700C0000060E083E00E94E7
:10032000220183EF91E00197F1F700C0000060E047
:1003300082E00E94220181EE94E00197F1F700C073
:10034000000060E088E20E94470160E088E00E94CF
:1003500047010E94560160E086E00E94470160E08C
:100360008CE00C944701962F8111905C60E0892FFE
:1003700080680C944701CF93DF93EC018991811140
:1003800003C0DF91CF91089561E00E944701F6CF4D
:100390008CE090E00E9441000E946101B89A80E0E8
:1003A0000E94630060E080E00E94B3018AE990E06F
:1003B0000E94BB0183EA90E00E945000C0E011E07F
:1003C0005F9BFECF0E945F008235F1F04CF48634D3
:1003D00081F08C34B1F0823489F00E948C00F0CF2F
:1003E0008835A9F0893521F18335B9F785EC90E09E
:1003F00002C082EB90E00E947400E2CF85EB90E0B7
:10040000FACF8AEB90E0F7CF8FEB90E0F4CFDC2FC0
:10041000D1278D2F0E94630082E990E0C11102C0B4
:100420008BE890E00E9474000E946900CD2FC8CF35
:100430008AEC90E0E0CFBB274A3031F4992322F4D4
:10044000BDE2909581959F4F0C942702BB27FB013D
:100450005527AA27880F991FAA1FA41710F0A41BBD
:1004600083955051B9F7A05DAA3308F0A95DA19317
:10047000009779F7B111B1931192CB010C9440021E
:10048000DC01FC01672F71917723E1F7329704C0FB
:100490007C916D9370836291AE17BF07C8F3089586
:0404A000F894FFCFFE
:1004A400427574746F6E3A00556E6B6E6F776E2082
:1004B400636F64653A002700556E6B6E6F776E202C
:1004C4006279746520636F64653D004C4544204F38
:1004D4004E004C4544204F4646004254205265612C
:1004E40064790053797374656D2052656164790D84
:1004F4000A00557000446F776E004C6566740052B4
:10050400696768740053746F7000486F726E0000FE
:00000001FF
