:100000000C942A000C9447000C9447000C94470071
:100010000C9447000C9447000C9447000C94470044
:100020000C9447000C9447000C9447000C94470034
:100030000C9447000C9438010C9447000C94470032
:100040000C9447000C9447000C9447000C94470014
:100050000C94470011241FBECFE5D8E0DEBFCDBF12
:1000600010E0A0E6B0E0E0E1F4E002C005900D92FF
:10007000A237B107D9F720E0A2E7B0E001C01D9296
:10008000AC37B207E1F70E9488010C9406020C9489
:100090000000CF9320E1829FC0011124C82FC860C7
:1000A000662311F0C82FC9608EE40E9418018823CE
:1000B00099F08C2F0E942C0100C08C2F84600E942C
:1000C0002C0100C08C2F0E942C0180E18A95F1F751
:1000D00000C0CF910C943101CF910895CF93DF935D
:1000E000C82FD62F82958F700E9449006D2F8C2FBC
:1000F0008F70DF91CF910C94490060E081E00E9405
:100100006E0081EE94E00197F1F700C000000895C1
:100110000E94FA0083E294EF0197F1F700C000001B
:100120008EE40E941801882329F080E00E942C01AF
:100130000E94310183EC99E00197F1F700C00000C3
:1001400060E083E00E94490083EC99E00197F1F7B9
:1001500000C0000060E083E00E94490083EF91E06E
:100160000197F1F700C0000060E083E00E944900C1
:1001700083EF91E00197F1F700C0000060E082E0BA
:100180000E94490081EE94E00197F1F700C0000061
:1001900060E088E20E946E0060E088E00E946E00ED
:1001A0000E947D0060E086E00E946E0060E08CE0CE
:1001B0000C946E00962F8111905C60E0892F80680E
:1001C0000C946E00CF93DF93EC018991811103C0F1
:1001D000DF91CF91089561E00E946E00F6CF80E13B
:1001E00097E206B607FE02C081E008950197C9F7BD
:1001F00080E0089584B38C7F84BB85B3836085BB26
:1002000083E08A95F1F70000A09A89E0A89893E02E
:100210009A95F1F70000A89A93E09A95F1F70000FB
:100220008150A1F711B882E080B984E086BF0895BB
:10023000CF93C82F84EA86BF0E94EF00882351F035
:10024000C3B984E886BF0E94EF00982F81E0911126
:1002500001C080E0CF91089583B984E886BF0C94F3
:10026000EF0084E986BF83E08A95F1F700000895E6
:100270002F932FB72F933F938F939F93EF93FF93DA
:100280002CB18091730090E001968770992730918E
:100290007200381741F0E0917300F0E0EC58FF4F26
:1002A000208380937300FF91EF919F918F913F91F5
:1002B0002F912FBF2F91189590BD89B9599A88E930
:1002C0008AB986E880BD5F9902C0789408958CB1A0
:1002D000FACF209173009091720081E0291301C040
:1002E00080E0089590917300809172009817D1F387
:1002F000E0917200F0E0EC58FF4F80812091720095
:1003000030E02F5F3F4F277033272093720008950E
:1003100000D0CDB7DEB787B3887F87BB88B387604F
:1003200088BB8CE090E00E945C010E9488000E94E3
:100330007D0060E080E00E94DA0080E690E00E94AC
:10034000E20060E081E00E94DA0088E690E00E942E
:10035000E20067E080E00E94DA0080E389831A828D
:10036000CE0101960E94E20068E081E00E94DA007E
:1003700080E289831A82CE0101960E94E200E12C7C
:1003800000E0F12C0E94690181111DC0B09B38C0B2
:10039000B19B38C0B29B38C01F2D011761F067E0D8
:1003A00080E00E94DA0080E3810F89831A82CE0107
:1003B00001960E94E20083ED90E30197F1F700C0FF
:1003C0000000012FDFCF0E947201182F8FEC810FE8
:1003D000833088F480EDF82EF10EE11699F268E092
:1003E00081E00E94DA0019831A82CE0101960E94F0
:1003F000E200E12EC7CF80EE810F8F3518F6EDCFEA
:1004000011E0CBCF12E0C9CF13E0C7CFF894FFCFF4
:1004100053746174653A20005369676E616C3A20C9
:020420000000DA
:00000001FF
