:100000000C942A000C9434000C9434000C943400AA
:100010000C9434000C9434000C9434000C94340090
:100020000C9434000C9434000C9434000C94340080
:100030000C9434000C9434000C9434000C94340070
:100040000C9434000C9434000C9434000C94340060
:100050000C94340011241FBECFE5D8E0DEBFCDBF25
:100060000E9451010C9488010C9400001F93CF93BF
:10007000DF9300D0CDB7DEB7182F0E94840060E078
:1000800080E00E94E100105D19831A82CE01019682
:100090000E94E9000F900F90DF91CF911F9108957A
:1000A000CF9320E1829FC0011124C82FC86066232E
:1000B00011F0C82FC9608EE40E941F01882399F0B7
:1000C0008C2F0E94330100C08C2F84600E9433016A
:1000D00000C08C2F0E94330180E18A95F1F700C0A7
:1000E000CF910C943801CF910895CF93DF93C82F0F
:1000F000D62F82958F700E9450006D2F8C2F8F709D
:10010000DF91CF910C94500060E081E00E94750077
:1001100081EE94E00197F1F700C0000008950E947D
:10012000010183E294EF0197F1F700C000008EE433
:100130000E941F01882329F080E00E9433010E9461
:10014000380183EC99E00197F1F700C0000060E00E
:1001500083E00E94500083EC99E00197F1F700C022
:10016000000060E083E00E94500083EF91E001977F
:10017000F1F700C0000060E083E00E94500083EFD0
:1001800091E00197F1F700C0000060E082E00E947A
:10019000500081EE94E00197F1F700C0000060E0AC
:1001A00088E20E94750060E088E00E9475000E946D
:1001B000840060E086E00E94750060E08CE00C94B2
:1001C0007500962F8111905C60E0892F80680C94F7
:1001D0007500CF93DF93EC018991811103C0DF910A
:1001E000CF91089561E00E947500F6CF80E197E21B
:1001F00006B607FE02C081E008950197C9F780E0C6
:10020000089584B38C7F84BB85B3836085BB83E012
:100210008A95F1F70000A09A89E0A89893E09A9552
:10022000F1F70000A89A93E09A95F1F70000815049
:10023000A1F711B882E080B984E086BF0895CF931A
:10024000C82F84EA86BF0E94F600882351F0C3B904
:1002500084E886BF0E94F600982F81E0911101C0CA
:1002600080E0CF91089583B984E886BF0C94F600AE
:1002700084E986BF83E08A95F1F70000089590BD78
:1002800089B9599A88E18AB986E880BD5F9B08954B
:100290008CB1FCCF8BB1807808955F9BFECF8CB181
:1002A000089587B3887F87BB88B3876088BB8CE05D
:1002B00090E00E943F010E948F0080E00E94360083
:1002C000D0E010E00E944A01882341F00E944D01D5
:1002D0009FEC980F933010F410ED180FB09B12C0E4
:1002E000B19B12C0B29B12C0C12FDC1719F08C2F2A
:1002F0000E94360083ED90E30197F1F700C0000003
:10030000DC2FE0CFC1E0F1CFC2E0EFCFC3E0EDCF13
:04031000F894FFCF8F
:00000001FF
