:100000000C942A000C943F000C943F000C943F0089
:100010000C943F000C943F000C943F000C943F0064
:100020000C943F000C943F000C943F000C943F0054
:100030000C943F000C943F000C943F000C943F0044
:100040000C943F000C943F000C943F000C943F0034
:100050000C943F0011241FBECFE5D8E0DEBFCDBF1A
:1000600010E0A0E6B0E0E6E5F4E002C005900D92F5
:10007000A63AB107D9F70E94C3010C9429020C9447
:10008000000090BD89B9599A88E18AB986E880BD97
:100090005F9B08958CB1FCCF5D9BFECF8CB908951A
:1000A000CF93DF93EC018991811103C0DF91CF9150
:1000B00008950E944C00F7CF8BB1807808955F9B24
:1000C000FECF8CB1089588B398E0892788BB089546
:1000D0001F93CF93DF9300D0CDB7DEB7182F89835E
:1000E0001A820E945C0160E080E00E94AE0180E61E
:1000F00090E00E94B60160E081E00E94AE01CE0176
:1001000001960E94B60185E690E00E945000812F82
:100110000E944C0083EA90E00E9450000F900F90E4
:10012000DF91CF911F9108951F93CF93DF93CDB7A8
:10013000DEB729970FB6F894DEBF0FBECDBF182FDC
:100140004AE0BE016F5F7F4F90E00E94F4010E9481
:100150005C0160E080E00E94AE018BE690E00E94CE
:10016000B60160E081E00E94AE01CE0101960E94DE
:10017000B60180EE810F8F3570F480E28E8387E2C6
:100180008F8318871986CE0106960E94B60189E7EB
:1001900090E00E94B6018BE790E00E945000CE01F3
:1001A00001960E94500083EA90E00E945000299638
:1001B0000FB6F894DEBF0FBECDBFDF91CF911F9178
:1001C00008958FE492E10197F1F700005F9B089595
:1001D0000E945F00FBCF80E197E206B607FE02C0F7
:1001E00081E008950197C9F780E0089584B38C7F7A
:1001F00084BB85B3836085BB00C0A09A89E0A898C2
:1002000000C0A89A00C08150D1F711B88AE080B927
:1002100084E086BF0895CF93C82F84EA86BF0E94EA
:10022000EB00882351F0C3B984E886BF0E94EB003D
:10023000982F81E0911101C080E0CF91089583B99A
:1002400084E886BF0C94EB0084E986BF00C0089563
:10025000CF9320E1829FC0011124C82FC86066237C
:1002600011F0C82FC9608EE40E940B01882399F019
:100270008C2F0E941F0100008C2F84600E941F01A0
:1002800000008C2F0E941F0182E08A95F1F7000088
:10029000CF910C942401CF910895CF93DF93C82F71
:1002A000D62F82958F700E9428016D2F8C2F8F7012
:1002B000DF91CF910C94280160E081E00E944D0114
:1002C00080ED8A95F1F7000008950E94F60084E819
:1002D0009EE10197F1F700008EE40E940B01882354
:1002E00029F080E00E941F010E94240188E391E030
:1002F0000197F1F7000060E083E00E94280188E3A5
:1003000091E00197F1F7000060E083E00E9428018E
:1003100093E59A95F1F7000060E083E00E942801E0
:1003200083E58A95F1F7000060E082E00E942801F1
:1003300090ED9A95F1F7000060E088E20E944D018F
:1003400060E088E00E944D010E945C0160E086E070
:100350000E944D0160E08CE00C944D01962F8111BC
:10036000905C60E0892F80680C944D01CF93DF93FF
:10037000EC018991811103C0DF91CF91089561E073
:100380000E944D01F6CF90E080E00E9441000E9463
:100390006501BB9AC39860E080E00E94AE018EE8E0
:1003A00090E00E94B60187E990E00E9450005F9BB8
:1003B000FECF0E945F00C82F0E946300CA3354F42E
:1003C000C03364F4C33251F0CA3241F08C2F0E9422
:1003D0009400EDCF8FEB8C0F8430C0F78C2F0E94F0
:1003E00068000E94E100E3CFBB274A3031F4992333
:1003F00022F4BDE2909581959F4F0C940002BB279B
:10040000FB015527AA27880F991FAA1FA41710F0D0
:10041000A41B83955051B9F7A05DAA3308F0A95DDC
:10042000A193009779F7B111B1931192CB010C947C
:100430001902DC01FC01672F71917723E1F73297F4
:1004400004C07C916D9370836291AE17BF07C8F3AF
:060450000895F894FFCFAF
:100456004B65793A004B65793A2000556E6B6E6FA5
:10046600776E20636F64653A002700556E6B6E6F7A
:10047600776E206279746520636F64653D0042542F
:100486002052656164790053797374656D205265F5
:060496006164790D0A000B
:00000001FF
