:100000000C942A000C943F000C943F000C943F0089
:100010000C943F000C943F000C943F000C943F0064
:100020000C943F000C943F000C943F000C943F0054
:100030000C943F000C943F000C943F000C943F0044
:100040000C943F000C943F000C943F000C943F0034
:100050000C943F0011241FBECFE5D8E0DEBFCDBF1A
:1000600010E0A0E6B0E0E6E8F1E002C005900D92F5
:10007000AA3BB107D9F70E94B3000C94C1000C94BD
:100080000000869509F480E80895AC01FB01809199
:1000900060008BBB30E020E0DA01A20FB31F9C911F
:1000A00095BBDF01A20FB31F9C9192BB96EA9A9574
:1000B000F1F700C0869509F480E88BBB2F5F3F4FB6
:1000C0002830310549F70895CF93DF93C6E9D0E092
:1000D00069EA70E081EB90E00E9445002197C1F74A
:1000E000DF91CF910895CF93DF93C4E6D0E069EA22
:1000F00070E081EB90E00E9445002197C1F7C4E6D3
:10010000D0E061E670E0CB010E9445002197C9F77D
:10011000DF91CF910895CF92DF92EF92FF920F93EC
:100120001F93CF93DF93D0E0C0E0CE0187599F4F5C
:100130006C01CE0187579F4F7C0108EC10E0B6019F
:10014000C7010E94450001501109C9F72896C03225
:10015000D10559F7DF91CF911F910F91FF90EF904B
:10016000DF90CF9008958FEF8ABB84BB81BB80E87E
:1001700084BF84BF0E9464000E9473000E948B00B1
:06018000F9CFF894FFCF57
:1001860080FFFFFFFFFFFFFFFFFFFFFFFFFFFFFFF8
:10019600FFFFFFFFFFFFFFFFFFFFFFFFFFFFFFFF69
:1001A600FFFFFFFFFFFFFFFFFFEFE7EBEFEF83FF31
:1001B600FFFFFFDBBB03FBFBFFFFFFC1F7F7D7E743
:1001C600F7FFDFDFC0DDDBFFFFFFFFFFFFFFFFFF06
:0A01D600FFEFE7EBEFEF83FFFF0000
:00000001FF
