:100000000C942A000C9434000C9434000C943400AA
:100010000C9434000C9434000C9434000C94340090
:100020000C9434000C9434000C9434000C94340080
:100030000C9434000C9434000C9434000C94340070
:100040000C9434000C9434000C9434000C94340060
:100050000C94340011241FBECFE5D8E0DEBFCDBF25
:100060000E9484000C94A8000C94000090BD89B9F3
:1000700082E08BB988E18AB986E880BD08958BB1AA
:10008000807808955F9BFECF8CB1089581B3806323
:1000900081BB84B38F6184BBAC9A81EA8FBD89E058
:1000A0008EBD1BBC1ABC19BC18BC0895813031F43C
:1000B000A89AA99870E07BBD6ABD0895823019F4B2
:1000C000A898A99AF7CF85B38C7F85BBF3CF8130F1
:1000D00031F4AA9AAB9870E079BD68BD089582307A
:1000E00019F4AA98AB9AF7CF85B3837F85BBF3CF7A
:1000F000CF93DF93C82FD62F0E9456006D2F8C2FE1
:10010000DF91CF910C9467008CE090E00E94360064
:100110000E9446005F9BFECF0E9442008233A1F006
:100120003CF4803361F060E88133A1F781E009C0DD
:10013000833361F06FEF843369F782E002C060E0DF
:1001400080E00E947800E6CF6FEFF0CF60E8F5CF57
:04015000F894FFCF51
:00000001FF
