:100000000C942A000C943F000C943F000C943F0089
:100010000C943F000C943F000C943F000C943F0064
:100020000C943F000C943F000C943F000C943F0054
:100030000C943F000C943F000C943F000C943F0044
:100040000C943F000C943F000C943F000C943F0034
:100050000C943F0011241FBECFE5D8E0DEBFCDBF1A
:1000600010E0A0E6B0E0E0EEF1E002C005900D92F5
:10007000A637B107D9F70E94DB000C94EE000C9470
:10008000000011B88DEF80B984E086BF089594EA2E
:1000900096BF06B607FEFDCF83B984E886BF06B6D5
:1000A00007FEFDCF089583B984E886BF06B607FE34
:1000B000FDCF089584E986BF0895CF9320E1829F04
:1000C000C0011124C82FC860662311F0C82FC96071
:1000D0008EE40E9447008C2F84600E9453008C2F76
:1000E0000E9453000E945A0080E18A95F1F700C0F7
:1000F000CF910895CF93DF93C82FD62F82958F701D
:100100000E945D006D2F8C2F8F70DF91CF910C942A
:100110005D0060E081E00E947A0083EF91E001974A
:10012000F1F700C0000008950E94410083ED90E3C4
:100130000197F1F700C0000060E083E00E945D00DD
:1001400081EE94E00197F1F700C0000060E083E0E9
:100150000E945D0092E39A95F1F760E083E00E94CF
:100160005D0082E38A95F1F760E082E00E945D0025
:1001700060E088E20E947A0060E08CE00E947A00F1
:100180000E94890060E086E00C947A00962F81112D
:10019000905C60E0892F80680C947A00CF93DF93A5
:1001A000EC018991811103C0DF91CF91089561E045
:1001B0000E947A00F6CF0E94940060E080E00E94E6
:1001C000C60080E690E00E94CE0060E081E00E94E0
:1001D000C6008DE690E00E94CE00FFCFF894FFCFDE
:1001E00048656C6C6F20576F726C64210041546DD0
:0601F00065676133320077
:00000001FF
