:100000000C942A000C943F000C943F000C943F0089
:100010000C943F000C943F000C943F000C943F0064
:100020000C943F000C943F000C943F000C943F0054
:100030000C943F000C943F000C943F000C943F0044
:100040000C943F000C943F000C943F000C943F0034
:100050000C943F0011241FBECFE5D8E0DEBFCDBF1A
:1000600010E0A0E6B0E0EAE8F2E002C005900D92F0
:10007000AA37B107D9F70E9430010C9443010C94C0
:10008000000080E197E206B607FE02C081E0089515
:100090000197C9F780E0089584B38C7F84BB85B352
:1000A000836085BB83E08A95F1F70000A09A89E020
:1000B000A89893E09A95F1F70000A89A93E09A9592
:1000C000F1F700008150A1F711B88AE080B984E00F
:1000D00086BF0895CF93C82F84EA86BF0E9441004F
:1000E000882351F0C3B984E886BF0E944100982F4D
:1000F00081E0911101C080E0CF91089583B984E837
:1001000086BF0C94410084E986BF83E08A95F1F7AD
:1001100000000895CF9320E1829FC0011124C82FD1
:10012000C860662311F0C82FC9608EE40E946A007F
:10013000882399F08C2F0E947E0000C08C2F846051
:100140000E947E0000C08C2F0E947E0080E18A9574
:10015000F1F700C0CF910C948300CF910895CF9315
:10016000DF93C82FD62F82958F700E948A006D2F43
:100170008C2F8F70DF91CF910C948A0060E081E02A
:100180000E94AF0081EE94E00197F1F700C00000FB
:1001900008950E944C0083E294EF0197F1F700C0AC
:1001A00000008EE40E946A00882329F080E00E940B
:1001B0007E000E94830083EC99E00197F1F700C074
:1001C000000060E083E00E948A0083EC99E00197E0
:1001D000F1F700C0000060E083E00E948A0083EF36
:1001E00091E00197F1F700C0000060E083E00E9419
:1001F0008A0083EF91E00197F1F700C0000060E012
:1002000082E00E948A0081EE94E00197F1F700C03D
:10021000000060E088E20E94AF0060E088E00E9499
:10022000AF000E94BE0060E086E00E94AF0060E088
:100230008CE00C94AF00962F8111905C60E0892FC8
:1002400080680C94AF00CF93DF93EC01899181110A
:1002500003C0DF91CF91089561E00E94AF00F6CF17
:100260000E94C90060E080E00E941B0180E690E0EF
:100270000E94230160E081E00E941B018DE690E076
:0A0280000E942301FFCFF894FFCF86
:10028A0048656C6C6F20576F726C642100537973E8
:0A029A0074656D20526561647900FF
:00000001FF
