:100000000C942A000C943F000C943F000C943F0089
:100010000C943F000C943F000C943F000C943F0064
:100020000C943F000C943F000C943F000C943F0054
:100030000C943F000C943F000C943F000C943F0044
:100040000C943F000C943F000C943F000C943F0034
:100050000C943F0011241FBECFE5D8E0DEBFCDBF1A
:1000600010E0A0E6B0E0E0E4F1E002C005900D92FF
:10007000A23BB107D9F70E9498000C949E000C9403
:100080000000869509F480E80895AC018091600035
:100090008BBB30E020E0FA01E20FF31F908192BBAE
:1000A00096EA9A95F1F700C0869509F480E88BBB33
:1000B0002F5F3F4F2830310571F70895CF93DF93BD
:1000C000C6E9D0E089EA90E00E9445002197D1F787
:1000D000DF91CF910895CF93DF93C4E6D0E089EA12
:1000E00090E00E9445002197D1F7C4E6D0E081E678
:1000F00090E00E9445002197D1F7DF91CF910895BC
:100100000F931F93CF93DF93C9E6D0E008EC10E084
:10011000CE010E94450001501109D1F7289680E0D8
:10012000C93AD80799F7DF91CF911F910F910895A0
:100130008FEF8ABB81BB0E946B00FDCFF894FFCF8D
:1001400080FFFFFFFFFFFFFFFFFFE1DDDDE1FDFDC2
:10015000FDFFC3BBBBC3FBFBFBFF87777787F7F7CD
:10016000F7FF0FEEEE0FEFEFEFFF1EDDDD1EDFDF1F
:10017000DFFF3CBBBB3CBFBFBFFF787777787F7F9B
:100180007FFFF0EEEEF0FEFEFEFFE1DDDDE1FDFDC6
:02019000FD0070
:00000001FF
