:100000000C942A000C9434000C9434000C943400AA
:100010000C9434000C9434000C9434000C94340090
:100020000C9434000C9434000C9434000C94340080
:100030000C9434000C9434000C9434000C94340070
:100040000C9434000C9434000C9434000C94340060
:100050000C94340011241FBECFE5D8E0DEBFCDBF25
:100060000E94E1000C944F010C94000090BD89B9EE
:1000700082E08BB988E18AB986E880BD08958BB1AA
:10008000807808955F9BFECF8CB1089581B3806323
:1000900081BB84B38F6184BBAC9A81EA8FBD89E058
:1000A0008EBD1BBC1ABC19BC18BC0895813031F43C
:1000B000A89AA99870E07BBD6ABD0895823019F4B2
:1000C000A898A99AF7CF85B38C7F85BBF3CF8130F1
:1000D00031F4AA9AAB9870E079BD68BD089582307A
:1000E00019F4AA98AB9AF7CF85B3837F85BBF3CF7A
:1000F000CF93C82F682F81E00E9456006C2F81E0BB
:10010000CF910C946700CF93C82F682F82E00E9494
:1001100056006C2F82E0CF910C946700CF93C82FCC
:10012000682F82E00E9456006C2F81E0CF910C94E2
:100130006700CF93C82F682F81E00E9456006C2F74
:1001400082E0CF910C94670060E080E00E9456004E
:1001500060E080E00C9467001F93CF93DF93182F2B
:10016000D62FC42F8FEF0E94780087EA91E601977F
:10017000F1F700C00000C633F1F04CF4C23379F05F
:10018000C43399F0DF91CF911F910C94A400C83330
:10019000C9F7812FDF91CF911F910C948300812F9C
:1001A000DF91CF911F910C9478008D2FDF91CF912B
:1001B0001F910C948E008D2FDF91CF911F910C9485
:1001C000990084B7806884BF84B7806884BF8CE05E
:1001D00090E00E9436000E94460010E0C0E3D0E0AC
:1001E000FF24F3945F9BFECF0E944200982F0D2FB7
:1001F0000F25853311F59CE882E8D11102C09FEFED
:100200008CEDC633B9F034F4C23349F0C43379F01D
:10021000D02FE8CFC83339F0D02FC7E3E3CF892FF1
:100220000E947800F5CF892F0E948300F1CF0E94B1
:100230008E00EECF0E949900EBCF8CE862E8DD23C0
:1002400011F08FEF6CED9433D9F064F4913311F128
:10025000923389F0903331F6111110C00E94A4003E
:10026000C0E3C0CF963389F0983309F0BBCF0E942A
:100270008300C8E303C00E947800C2E310E0B2CF5D
:10028000862F0E948E00C4E3F9CF862F0E9499002A
:10029000C6E3F4CF4C2F0E94AC0011E0A3CFF8943A
:0202A000FFCF8E
:00000001FF
