:100000000C942A000C9447000C9447000C94470071
:100010000C9447000C9447000C9447000C94470044
:100020000C9447000C9447000C9447000C94470034
:100030000C9447000C9438010C9447000C94470032
:100040000C9447000C9447000C9447000C94470014
:100050000C94470011241FBECFE5D8E0DEBFCDBF12
:1000600010E0A0E6B0E0ECEAF3E002C005900D92EB
:10007000AE36B107D9F720E0AEE6B0E001C01D9280
:10008000A837B207E1F70E948C010C94D4010C94BC
:100090000000CF9320E1829FC0011124C82FC860C7
:1000A000662311F0C82FC9608EE40E9418018823CE
:1000B00099F08C2F0E942C0100C08C2F84600E942C
:1000C0002C0100C08C2F0E942C0180E18A95F1F751
:1000D00000C0CF910C943101CF910895CF93DF935D
:1000E000C82FD62F82958F700E9449006D2F8C2FBC
:1000F0008F70DF91CF910C94490060E081E00E9405
:100100006E0081EE94E00197F1F700C000000895C1
:100110000E94FA0083E294EF0197F1F700C000001B
:100120008EE40E941801882329F080E00E942C01AF
:100130000E94310183EC99E00197F1F700C00000C3
:1001400060E083E00E94490083EC99E00197F1F7B9
:1001500000C0000060E083E00E94490083EF91E06E
:100160000197F1F700C0000060E083E00E944900C1
:1001700083EF91E00197F1F700C0000060E082E0BA
:100180000E94490081EE94E00197F1F700C0000061
:1001900060E088E20E946E0060E088E00E946E00ED
:1001A0000E947D0060E086E00E946E0060E08CE0CE
:1001B0000C946E00962F8111905C60E0892F80680E
:1001C0000C946E00CF93DF93EC018991811103C0F1
:1001D000DF91CF91089561E00E946E00F6CF80E13B
:1001E00097E206B607FE02C081E008950197C9F7BD
:1001F00080E0089584B38C7F84BB85B3836085BB26
:1002000083E08A95F1F70000A09A89E0A89893E02E
:100210009A95F1F70000A89A93E09A95F1F70000FB
:100220008150A1F711B882E080B984E086BF0895BB
:10023000CF93C82F84EA86BF0E94EF00882351F035
:10024000C3B984E886BF0E94EF00982F81E0911126
:1002500001C080E0CF91089583B984E886BF0C94F3
:10026000EF0084E986BF83E08A95F1F700000895E6
:100270002F932FB72F933F938F939F93EF93FF93DA
:100280002CB180916F0090E0019687709927309192
:100290006E00381741F0E0916F00F0E0E059FF4F39
:1002A000208380936F00FF91EF919F918F913F91F9
:1002B0002F912FBF2F91189590BD89B9599A88E930
:1002C0008AB986E880BD5F9902C0789408958CB1A0
:1002D000FACF20916F0090916E0081E0291301C048
:1002E00080E0089590916F0080916E009817D1F38F
:1002F000E0916E00F0E0E059FF4F808120916E00A8
:1003000030E02F5F3F4F2770332720936E00089512
:100310005D9BFECF8CB9089500D00F92CDB7DEB7AC
:1003200087B3887F87BB88B3876088BB8CE090E009
:100330000E945C010E94880081E40E94880184E59B
:100340000E9488012FE986E891E02150804090408A
:10035000E1F700C000000E947D0060E080E00E94A4
:10036000DA000E9469018823E1F00E947201182FCF
:100370000E946901882399F00E94720119838A837F
:100380001B82CE0101960E94E2002FE38DE093E0F4
:10039000215080409040E1F700C00000CDCF8FE3B6
:0C03A000EDCF80E690E0EFCFF894FFCFA7
:0E03AC006C6F6F706261636B206661696C003C
:00000001FF
