:100000000C942A000C943F000C943F000C943F0089
:100010000C943F000C943F000C943F000C943F0064
:100020000C943F000C943F000C943F000C943F0054
:100030000C943F000C943F000C943F000C943F0044
:100040000C943F000C943F000C943F000C943F0034
:100050000C943F0011241FBECFE5D8E0DEBFCDBF1A
:1000600010E0A0E6B0E0EAE0F1E002C005900D92F9
:10007000A238B107D9F70E9463000C9483000C9456
:10008000000090BD89B9599A88E18AB986E880BD97
:100090005F9B08958CB1FCCF5D9BFECF8CB908951A
:1000A000CF93DF93EC018991811103C0DF91CF9150
:1000B00008950E944C00F7CF8BB1807808955F9B24
:1000C000FECF8CB108958CE090E00E94410087B390
:1000D000836087BB88B38C7F88BB80E690E00E94FA
:1000E00050005F9BFECF0E945F00803339F0813368
:1000F000C1F7C19AC09888E790E0F1CFC09AC19843
:0A0100008FE690E0ECCFF894FFCFFB
:10010A0053797374656D2052656164790D0A0050E4
:10011A004230204F4E0D0A00504231204F4E0D0AF8
:02012A000000D3
:00000001FF
