:100000000C942A000C943F000C943F000C943F0089
:100010000C943F000C943F000C943F000C943F0064
:100020000C943F000C943F000C943F000C943F0054
:100030000C943F000C943F000C943F000C943F0044
:100040000C943F000C943F000C943F000C943F0034
:100050000C943F0011241FBECFE5D8E0DEBFCDBF1A
:1000600010E0A0E6B0E0EEEAF1E002C005900D92EB
:10007000A239B107D9F70E94CF000C94D5000C9497
:100080000000869509F480E80895880F09F481E05E
:100090000895809160008BBB30E020E0F901E757C4
:1000A000FF4F808188BB86EA8A95F1F700C08BB349
:1000B000869509F480E88BBB2F5F3F4F28303105D0
:1000C00069F70895209160002BBB50E040E09C014F
:1000D00083E0220F331F8A95E1F727593F4FF9013B
:1000E000E40FF51F808188BB86EA8A95F1F700C08E
:1000F0009BB3969509F490E89BBB4F5F5F4F4830E8
:10010000510569F70895809160008BBB30E020E0D5
:10011000F901EF59FF4F808188BB86EA8A95F1F794
:1001200000C08BB3869509F480E88BBB2F5F3F4FEF
:100130002830310569F70895CF93DF93C2E3D0E00B
:100140000E9449002197E1F7DF91CF910895CF9365
:10015000DF93C4E6D0E00E9449002197E1F7C4E6AE
:10016000D0E00E9483002197E1F7DF91CF910895BD
:100170000F931F93CF93DF93D0E0C0E008EC10E023
:10018000CE010E94620001501109D1F72196C330BF
:10019000D105A1F7DF91CF911F910F9108958FEFB6
:0E01A0008ABB81BB0E94A700FDCFF894FFCF61
:1001AE0080FFFFFFFFFFFFFFFFEFE7EBEFEF83FFA8
:1001BE00FFFFFFDBBB03FBFBFFFFFFC1F7F7D7E73B
:1001CE00F7FFDFDFC0DDDBFFFFEFE7EBEFEF83FFD6
:0201DE00FF0020
:00000001FF
